{"contracts/libraries/FixedPoint.sol":{"FixedPoint":{"abi":[{"inputs":[],"name":"Q112","outputs":[{"internalType":"uint256","name":"","type":"uint256"}],"stateMutability":"view","type":"function"},{"inputs":[],"name":"RESOLUTION","outputs":[{"internalType":"uint8","name":"","type":"uint8"}],"stateMutability":"view","type":"function"}],"evm":{"bytecode":{"linkReferences":{},"object":"60b8610039600b82828239805160001a60731461002c57634e487b7160e01b600052600060045260246000fd5b30600052607381538281f3fe7300000000000000000000000000000000000000003014608060405260043610603d5760003560e01c80633bf7a83e146042578063552f888a14606a575b600080fd5b60576e01000000000000000000000000000081565b6040519081526020015b60405180910390f35b6071607081565b60405160ff9091168152602001606156fea2646970667358221220678531bcf2b1107ba8d68d33206620a2f70c7c291a5f764cb52e2f4b8dac205a64736f6c63430008180033","opcodes":"PUSH1 0xB8 PUSH2 0x39 PUSH1 0xB DUP3 DUP3 DUP3 CODECOPY DUP1 MLOAD PUSH1 0x0 BYTE PUSH1 0x73 EQ PUSH2 0x2C JUMPI PUSH4 0x4E487B71 PUSH1 0xE0 SHL PUSH1 0x0 MSTORE PUSH1 0x0 PUSH1 0x4 MSTORE PUSH1 0x24 PUSH1 0x0 REVERT JUMPDEST ADDRESS PUSH1 0x0 MSTORE PUSH1 0x73 DUP2 MSTORE8 DUP3 DUP2 RETURN INVALID PUSH20 0x0 ADDRESS EQ PUSH1 0x80 PUSH1 0x40 MSTORE PUSH1 0x4 CALLDATASIZE LT PUSH1 0x3D JUMPI PUSH1 0x0 CALLDATALOAD PUSH1 0xE0 SHR DUP1 PUSH4 0x3BF7A83E EQ PUSH1 0x42 JUMPI DUP1 PUSH4 0x552F888A EQ PUSH1 0x6A JUMPI JUMPDEST PUSH1 0x0 DUP1 REVERT JUMPDEST PUSH1 0x57 PUSH15 0x10000000000000000000000000000 DUP2 JUMP JUMPDEST PUSH1 0x40 MLOAD SWAP1 DUP2 MSTORE PUSH1 0x20 ADD JUMPDEST PUSH1 0x40 MLOAD DUP1 SWAP2 SUB SWAP1 RETURN JUMPDEST PUSH1 0x71 PUSH1 0x70 DUP2 JUMP JUMPDEST PUSH1 0x40 MLOAD PUSH1 0xFF SWAP1 SWAP2 AND DUP2 MSTORE PUSH1 0x20 ADD PUSH1 0x61 JUMP INVALID LOG2 PUSH5 0x6970667358 0x22 SLT KECCAK256 PUSH8 0x8531BCF2B1107BA8 0xD6 DUP14 CALLER KECCAK256 PUSH7 0x20A2F70C7C291A PUSH0 PUSH23 0x4CB52E2F4B8DAC205A64736F6C63430008180033000000 "},"methodIdentifiers":{"Q112()":"3bf7a83e","RESOLUTION()":"552f888a"}}}}}