{
  "_format": "hh-sol-artifact-1",
  "contractName": "FixedPoint",
  "sourceName": "contracts/libraries/FixedPoint.sol",
  "abi": [
    {
      "inputs": [],
      "name": "Q112",
      "outputs": [
        {
          "internalType": "uint256",
          "name": "",
          "type": "uint256"
        }
      ],
      "stateMutability": "view",
      "type": "function"
    },
    {
      "inputs": [],
      "name": "RESOLUTION",
      "outputs": [
        {
          "internalType": "uint8",
          "name": "",
          "type": "uint8"
        }
      ],
      "stateMutability": "view",
      "type": "function"
    }
  ],
  "bytecode": "0x60b8610039600b82828239805160001a60731461002c57634e487b7160e01b600052600060045260246000fd5b30600052607381538281f3fe7300000000000000000000000000000000000000003014608060405260043610603d5760003560e01c80633bf7a83e146042578063552f888a14606a575b600080fd5b60576e01000000000000000000000000000081565b6040519081526020015b60405180910390f35b6071607081565b60405160ff9091168152602001606156fea2646970667358221220678531bcf2b1107ba8d68d33206620a2f70c7c291a5f764cb52e2f4b8dac205a64736f6c63430008180033",
  "linkReferences": {},
  "deployedLinkReferences": {}
}